:100000000C9454010C9473010C9471010C947101C3
:100010000C9471010C948A010C9471010C94E6010A
:100020000C9471010C9471010C949E020C9471015A
:100030000C9471010C9471010C9471010C94710178
:100040000C9471010C9471010C9408040C947101CE
:100050000C9471010C9419030C9471010C947101AE
:100060000C9471010C947101050000000000050062
:10007000005F000005000700070005147F147F14CF
:1000800005242A7F2A12052313086462053649567F
:10009000205005080703000005001C224100050050
:1000A00041221C000514083E08140508083E0808F3
:1000B0000500B07000000508080808080500606029
:1000C0000000052010080402053E5149453E050088
:1000D000427F4000057249494946052141494D3357
:1000E000051814127F10052745454539053C4A4936
:1000F0004931054121110907053649494936054667
:100100004949291E05000014000005004034000084
:100110000508142241000514141414140541221476
:100120000800050201590906053E415D594E057C4E
:100130001211127C057F49494936053E4141412251
:10014000057F4141413E057F49494949057F0909EC
:100150000909053E41415173057F0808087F0500E4
:10016000417F4100052040413F01057F08142241A5
:10017000057F40404040057F020C027F057F040858
:10018000107F053E4141413E057F09090906053EB4
:100190004151215E057F0919294605264949493201
:1001A0000501017F0101053F4040403F051F204000
:1001B000201F053F4038403F0563140814630503C2
:1001C0000478040305615149454305007F4141001E
:1001D000050204081020050041417F0005040201CA
:1001E000020405404040404005070B000000052088
:1001F00054547840057F2844443805384444442802
:1002000005384444287F0538545454180500087EA6
:1002100009020518A4A49C78057F08040478050049
:10022000447D4000052040403D00057F10284400EB
:100230000500417F4000057C04780478057C0804B3
:10024000047805384444443805FC1824241805185B
:10025000242418FC057C080404080548545454243C
:100260000504043F4424053C4040207C051C2040FC
:10027000201C053C4030403C054428102844054CD7
:100280009090907C054464544C440500083641002D
:10029000050000770000050041360800050402044F
:1002A000080405007F417F0011241FBECFEFD8E076
:1002B000DEBFCDBF11E0A0E0B1E0ECE9F3E202C0A7
:1002C00005900D92AC34B107D9F725E0ACE4B1E06C
:1002D00001C01D92A237B207E1F70E9444060C94B8
:1002E000CC110C9400001F920F920FB60F921124A4
:1002F0008F939F938091560190915701019690930F
:100300005701809356019F918F910F900FBE0F90D0
:100310001F9018951F920F920FB60F9211242F93D2
:100320003F934F935F936F937F938F939F93AF937D
:10033000BF93EF93FF934E9904C084E480935101DF
:1003400003C082E5809351014F9903C080E58093FB
:1003500051014B9914C08091040190910501883C92
:10036000910528F401969093050180930401609112
:1003700004017091050185E090E00E9472114C9992
:1003800014C080910401909105018F31910528F0EE
:10039000019790930501809304016091040170918D
:1003A000050185E090E00E947211FF91EF91BF91ED
:1003B000AF919F918F917F916F915F914F913F91FD
:1003C0002F910F900FBE0F901F9018951F920F92B4
:1003D0000FB60F9211248F929F92AF92BF92CF923D
:1003E000DF92EF92FF922F933F934F935F936F9320
:1003F0007F938F939F93AF93BF93EF93FF938091DE
:100400005A018F5F80935A018A3F09F07EC0609144
:1004100004017091050180E090E00E946B0D26E5DB
:100420003EE049E450E40E94F90D6B017C016091CB
:1004300056017091570180E090E00E946B0D4B01D6
:100440005C019B01AC01C701B6010E94F90D6B0173
:100450007C012CE137EC41E35FE30E94CA0C20E011
:1004600030E040EA51E40E94CA0C0E943C0D7093B7
:10047000600160935F0129E838E848E05CE3C5016A
:10048000B4010E94CA0C0E943C0D70935901609304
:10049000580120E030E040E251E4C701B6010E947B
:1004A000CA0C6B017C0160915D0170915E0180E07E
:1004B00090E00E946B0DA70196010E945E0C0E94C5
:1004C0003C0D70935E0160935D0110925A01109291
:1004D000570110925601613127E27207B0F0409146
:1004E0005B0150915C014F5F5F4F50935C01409303
:1004F0005B016051774270935E0160935D0160E043
:1005000070E080E090E00E946A11FF91EF91BF914E
:10051000AF919F918F917F916F915F914F913F919B
:100520002F91FF90EF90DF90CF90BF90AF909F9072
:100530008F900F900FBE0F901F9018951F920F92E3
:100540000FB60F9211242F933F934F935F936F93A6
:100550007F938F939F93AF93BF93EF93FF9380917C
:10056000810086FF0FC08091860090918700A0E0F7
:10057000B0E08093610190936201A0936301B09316
:1005800064012AC08091860090918700A0E0B0E0CD
:100590004091610150916201609163017091640129
:1005A000841B950BA60BB70B880F991FAA1FBB1FA7
:1005B000880F991FAA1FBB1F880F991FAA1FBB1F57
:1005C000880F991FAA1FBB1F80935201909353015C
:1005D000A0935401B0935501E1E8F0E0908180E4EC
:1005E0008927808360915201709153018091540159
:1005F000909155012AE330E040E050E00E947A0EED
:100600002093650130936601409367015093680120
:10061000FF91EF91BF91AF919F918F917F916F91DA
:100620005F914F913F912F910F900FBE0F901F90B0
:1006300018951F920F920FB60F9211242F933F938C
:100640004F935F936F937F938F939F93AF93BF93DA
:10065000EF93FF9380914E018130B9F120F0823009
:1006600009F469C0AEC010927C004F9902C018BC5A
:1006700026C080915F01909160014597B8F080910C
:10068000650190916601A0916701B09168018C327B
:100690009140A105B10550F48091780090917900C6
:1006A0008836910518F089E188BD09C080917800ED
:1006B00090917900969587959695879588BD8091BC
:1006C0004E018F5F80934E0180C081E080937C005B
:1006D00080917800909179008939924090F420912E
:1006E00078003091790044E6429FC001439F900D0D
:1006F0001124892F8695869580930001109201011F
:1007000014C0209178003091790044E6429FC001E6
:10071000439F900D1124892F9927869586958F5B8D
:100720009F4F909301018093000180914E018F5F54
:1007300080934E014AC083E080937C00E8E7F0E0BC
:100740002081318144E6429FC001439F900D1124D6
:100750002081318160E074E0621B730B0E94660EA1
:100760006456710980E090E00E946B0D28EB3EE139
:1007700045EC5EE30E94CA0C0E943C0D709303019D
:1007800060930201693C710520F010920301109200
:100790000201409102015091030180914F0190911B
:1007A00050018417950750F45093500140934F0126
:1007B00060E070E08AE090E00E946A1110924E01C1
:1007C00004C010927C0010924E01FF91EF91BF91F6
:1007D000AF919F918F917F916F915F914F913F91D9
:1007E0002F910F900FBE0F901F9018959093C500FA
:1007F0008093C40088E98093C1008AE08093C2009E
:1008000008959091C00095FFFCCF8093C600089595
:100810001F920F920FB60F9211240F931F932F93D5
:100820003F934F935F936F937F938F939F93AF9378
:10083000BF93EF93FF93CF93DF93CDB7DEB72897A6
:10084000DEBFCDBF0091C600043631F58091500166
:100850008F9380914F018F9386E091E09F938F93C8
:10086000CE0101969F938F930E94AB0E0F900F9035
:100870000F900F900F900F9010E004C090E00E9436
:1008800001041F5FE1E0F0E0EC0FFD1FE10FF11D3F
:1008900080818111F3CF01C010E00C3651F4109229
:1008A000500110924F0160E070E08AE090E00E94F9
:1008B0007211053721F580914D018F9380914C0184
:1008C0008F9386E091E09F938F93CE0101969F9343
:1008D0008F930E94AB0E0F900F900F900F900F9080
:1008E0000F9004C090E00E9401041F5FE1E0F0E07F
:1008F000EC0FFD1FE10FF11D80818111F3CF0D364B
:1009000061F460915B0170915C0170934D016093A3
:100910004C018FE090E00E94721128960FB6F89477
:10092000DEBF0FBECDBFDF91CF91FF91EF91BF91A1
:10093000AF919F918F917F916F915F914F913F9177
:100940002F911F910F910F900FBE0F901F90189530
:10095000CF92EF920F938091020190910301813524
:100960009105C8F0CC24CA940F2EFDE2EF2EF02D95
:100970000CE62CE348E76CE380E60E944E0A62E353
:100980008AE60E94FB0789E091E00E94DB0B88B1B8
:10099000846088B903C088B18B7788B980914C0195
:1009A00090914D01029620915B0130915C0182177C
:1009B000930778F40FEF2EE146E76CE282E60E949F
:1009C000F70963E28AE60E94FB078BE091E00E9450
:1009D000DB0B0F91EF90CF9008950E94970A60E093
:1009E00080E00E94FB078DE091E00E94DB0B8AE52E
:1009F0000E94F107609100017091010180E090E098
:100A00000E94F20B89E191E00E94DB0B69E080E03B
:100A10000E94FB078CE191E00E94DB0B8AE50E94BB
:100A2000F107609102017091030180E090E00E9463
:100A3000F20B89E291E00E94DB0B60E180E00E9412
:100A4000FB078CE291E00E94DB0B60910401709146
:100A5000050180E090E00E94F20B69E180E00E94D5
:100A6000FB07609158017091590180E090E00E946D
:100A7000F20B87E391E00E94DB0B62E280E00E94D0
:100A8000FB078CE391E00E94DB0B609165017091A4
:100A9000660180916701909168010E94F20B84E4E5
:100AA00091E00E94DB0B60E385E00E94FB078091F0
:100AB00051010E94CA0A84E10E94F10760915B0122
:100AC00070915C0180E090E00E94F20B88E491E07C
:100AD0000E94DB0B0E94A8040E94CD07089585B1F7
:100AE000817085B985B1806685B945B120915F0176
:100AF000309160013695279536952795ABE7B4E19F
:100B00000E949C0E96958795880F8E71842B85B9CF
:100B10008BE594E40197F1F700C0000085B1817E78
:100B200085B995B180EC892785B945B120915F01E0
:100B300030916001ADECBCEC0E949C0EFC01F6957E
:100B4000E795F695E795F695E7959F010E949C0E2F
:100B50009695879596958795969587959C01220FF2
:100B6000331F880F991F880F991F880F991F820FB5
:100B7000931F9F01281B390BC901880F8E71842B8D
:100B800085B98BE594E40197F1F700C0000085B1C9
:100B9000817E85B995B180E6892785B945B1E09117
:100BA0005F01F09160019F010E949C0E96958795D0
:100BB00096958795969587959C01220F331F880FF0
:100BC000991F880F991F880F991F820F931F9F01EC
:100BD000281B390BC901880F8E71842B85B98BE5D1
:100BE00094E40197F1F700C00000089580E090E0E0
:100BF0000E945E116F3F2FEF72078207920751F03C
:100C000020915B0130915C01232B21F470935C01F6
:100C100060935B0185E090E00E9464118F3F2FEFAD
:100C2000920759F020910401309105018217930732
:100C300021F090930501809304018AE090E00E94E6
:100C400064118F3F2FEF920759F020914F0130919F
:100C500050018217930721F09093500180934F0128
:100C60008FE090E00E9464118F3F2FEF920759F0C0
:100C700020914C0130914D018217930721F0909300
:100C80004D0180934C01089587E690E00E94F603A1
:100C90000E94040820E048E065E088E690E00E94B9
:100CA000AB0A0E94970A0E949B0A0E94CD074E99A8
:100CB00004C084E48093510103C082E58093510114
:100CC0004F9903C080E5809351018EEF84B91AB823
:100CD0008BB18C618BB987B1846087B982E08093D6
:100CE000B00095E09093B10029EF2093B30080937A
:100CF000700024E42093810020E220936F0023EA17
:100D000024BD95BD18BC10927C009FEE90937A0094
:100D100010927B0094E390937E00E8E6F0E09081EF
:100D200094609083EDE6F0E09081986090839081EC
:100D3000906190839081906490839081906890837B
:100D40008093690081E08DBB78940E94F6050E9433
:100D50006F050E94ED04F9CF669566956695E82FBC
:100D6000F0E080E8689FE00DF11D1124EE58FE4F81
:100D700040830895669566956695E82FF0E080E8D3
:100D8000689FE00DF11D1124EE58FE4F80810895FB
:100D9000CF93DF93DC01CB01FA0120E32287218787
:100DA000208727832683258324832383228321830B
:100DB0002083BB234CF4B095A095909581959F4FCF
:100DC000AF4FBF4F31E008C030E006C09A5CAA497F
:100DD000BB4321812F5F218381152AEC92072AE9E9
:100DE000A2072BE3B20794F706C0915EA54FB5406A
:100DF00022812F5F2283811521EE920725EFA20722
:100E000025E0B20794F707C080589649A849B10970
:100E100023812F5F2383803826E9920728E9A207E0
:100E2000B10594F707C080549244AF40B1092481C2
:100E30002F5F2483803422E492072FE0A207B105BC
:100E400094F707C0805A9648A140B10925812F5FC9
:100E50002583803A26E8920721E0A207B10594F79E
:100E600007C080519742A109B10926812F5F2683CF
:100E7000803127E29207A105B1059CF707C0885E83
:100E80009340A109B10927812F5F2783883E23E082
:100E90009207A105B1059CF707C084569109A109E5
:100EA000B10920852F5F208784369105A105B10502
:100EB000A4F706C00A97A109B10921852F5F2187F0
:100EC0008A309105A105B105ACF706C00197A109CB
:100ED000B10922852F5F2287181619061A061B06EC
:100EE000ACF320E001C02F5FDF01A20FB11D8C9198
:100EF0008033C9F3332331F02150DF01A20FB11D3C
:100F00008DE28C934AE0421B30E00DC0832F90E0CD
:100F1000EF01C80FD91F820F911DDF01A80FB91F64
:100F20008C9188833F5F431788F7E30FF11D108290
:100F3000DF91CF9108950F931F93CF93DF93C82F25
:100F40008B01D42F0E943F0C88E70E94510C8C2FFC
:100F50000E94510CC0E007C0F801EC0FF11D808128
:100F60000E94510CCF5FCD17B8F30E94490CDF915E
:100F7000CF911F910F910895CF93DF931F92CDB71B
:100F8000DEB7898341E0BE016F5F7F4F80E00E9442
:100F90009B070F90DF91CF910895CF9381E20E943C
:100FA000BC0780E00E94BC078FE70E94BC0782E27A
:100FB0000E94BC0780E00E94BC0787E00E94BC073B
:100FC000C0E00BC080E1C89FB00111246E587E4F75
:100FD00040E180E40E949B07CF5FC03498F3CF913B
:100FE0000895882314F0809369010895803410F4E3
:100FF00080936A010895CF93C62F0E94F1078C2F2A
:101000000E94F607CF9108950E94260C8EEA0E9456
:10101000BC0785ED0E94BC0780EF0E94BC0788EAF0
:101020000E94BC078FE30E94BC0783ED0E94BC07AF
:1010300080E00E94BC078DE80E94BC0784E10E940A
:10104000BC0780E40E94BC0780E20E94BC0780E0ED
:101050000E94BC0781EA0E94BC0788EC0E94BC0782
:101060008AED0E94BC0782E10E94BC0781E80E94D1
:10107000BC078FEF0E94BC0789ED0E94BC0781EF7F
:101080000E94BC078BED0E94BC0780E20E94BC0757
:1010900084EA0E94BC0786EA0E94BC078EE20E9496
:1010A000BC078FEA0E94BC0760E080E00E94FB075B
:1010B000E9E6F1E086EA82831782168215821182C0
:1010C00010820895FF920F931F93CF93DF93C62F43
:1010D000142F0E94FB07E9E6F1E0F180D0816F2D2B
:1010E0008D2F0E94BA061F3F79F4C77001E010E00F
:1010F00020E030E004C0000F111F221F331FCA95EB
:10110000D2F7482F402B0FC0C77001E010E020E05D
:1011100030E004C0000F111F221F331FCA95D2F701
:101120000095402F48236F2D8D2F0E94AC06DF9134
:10113000CF911F910F91FF9008956F927F928F92A0
:101140009F92AF92BF92CF92DF92EF92FF920F9356
:101150001F93CF93DF9388230CF4A7C044230CF490
:10116000A4C0603408F0A1C0203408F09EC0261B43
:1011700099249394920E481BD1E0D40F962F977028
:10118000162F191BE92CF12C28E030E0291B31091E
:10119000E216F3067CF428E030E02E193F094FEF09
:1011A00050E06A0102C0D594C7942A95E2F72C2D2D
:1011B000B92C04C028E0B22EB91A2FEFA82EC22EE7
:1011C000D12C02C0CC0CDD1C9A95E2F76C2C612F5F
:1011D0000E94FB07812C19C0E9E6F1E07180C08113
:1011E000672D8C2F0E94BA060F3F19F4462D482B0D
:1011F00003C04C2D4095482381E08C0F80936901FA
:10120000672D8C2F0E94AC0683948D1628F316C090
:1012100088E0B80E185F612F8A2D0E94FB07C0E09E
:101220000BC0E9E6F1E06181808191E0980F908345
:10123000402F0E94AC06CF5FCD1798F38B2D90E026
:101240009C01285F3F4FE216F30614F7B91468F5C6
:10125000E81AF90A8FEF90E002C0880F991FEA940C
:10126000E2F7E82EE09468E0610F8A2D0E94FB0708
:1012700010E019C0E9E6F1E0F180C0816F2D8C2FFC
:101280000E94BA060F3F19F44E2D482B03C04E2D75
:101290004095482381E08C0F809369016F2D8C2F3E
:1012A0000E94AC061F5F1D1728F3DF91CF911F919D
:1012B0000F91FF90EF90DF90CF90BF90AF909F90F5
:1012C0008F907F906F9008958F929F92AF92BF9270
:1012D000CF92DF92EF92FF920F931F93CF93DF9302
:1012E000C82FD62F142F88230CF474C044230CF479
:1012F00071C0603408F06EC0203408F06BC08413F5
:101300000AC0261710F4D22F262F4C2F6D2F8C2FAA
:101310000E949D085FC062130EC0481748F4C42F96
:10132000182F06C0402F6D2F8C2F0E946208CF5FB0
:101330001C17C0F74FC0261728F4C62ED12CC21A8E
:10134000D10804C0C22ED12CC61AD1081C1728F40B
:10135000AC2EB12CA11AB10804C0A12EB12CAC1A2C
:10136000B108AC14BD0434F4812F122F282F8C2F18
:10137000CD2FD82F1C1730F48D2FD22F282F8C2F44
:10138000C12F182F912E9C1AD21718F4E22EED1AA5
:1013900002C0ED2EE21AF92CF694D21718F4882424
:1013A000839416C088248A9413C0AC14BD0434F40A
:1013B000402F6C2F8D2F0E94620805C0402F6D2F8B
:1013C0008C2F0E946208FE1812F4D80DF90CCF5F22
:1013D0001C1758F7DF91CF911F910F91FF90EF905D
:1013E000DF90CF90BF90AF909F908F900895DF9245
:1013F000EF92FF920F931F93CF93DF9388230CF408
:1014000045C044230CF442C0603408F03FC020348F
:10141000E8F5D02F122FD42EF62EE82E481718F00C
:10142000042FC82F09C0082FC42F06C04D2F6F2DC1
:101430008C2F0E946208CF5F0C17C0F7DE1418F0E3
:101440000D2DCE2D09C00E2DCD2D06C04D2F612F97
:101450008C2F0E946208CF5F0C17C0F71F1518F081
:10146000212F6F2D02C02F2D612F0D2F4E2D8E2D70
:101470000E949D081F1518F0212F6F2D02C02F2DDF
:10148000612F0D2F4D2D8D2D0E949D08DF91CF9145
:101490001F910F91FF90EF90DF900895CF92DF9210
:1014A000EF92FF920F931F93CF93DF938823FCF06B
:1014B0004423ECF00023DCF06034C8F42034B8F4AA
:1014C0009FE39E15A0F0102FD22ED42FF62EC82FFA
:1014D0000C2D0E9464092E2D412F6D2D8D2F0E9401
:1014E00064092F2D4C2F6E2D812F0E946409DF91EE
:1014F000CF911F910F91FF90EF90DF90CF900895C3
:101500001F93CF93DF93182FD0E00BC0412F6D2F87
:101510008C2F0E94AC06CF5F01C0C0E0CC23B4F793
:10152000D85FD034D0F3DF91CF911F91089580E040
:101530000E94800A089580916B01873A21F486EA1F
:1015400080936B0103C087EA80936B0180916B01EC
:101550000E94BC0708956623E4F04034D0F42230A2
:10156000C0F4E9E6F1E0948383836583468350E029
:1015700041505109CA0199230CF407969595879516
:101580009595879595958795E9E6F1E08F5F878337
:10159000208708954F925F926F927F928F929F92D1
:1015A000AF92BF92CF92DF92EF92FF920F931F9371
:1015B000CF93DF93A9E6B1E05C9011964C90119720
:1015C000805215969C91159717962C911797929F7C
:1015D000900111242F5F3F4F829FA001839F500DE8
:1015E00011241396ED91FC9114975A018FEFA81ACC
:1015F000B80AE40FF51F7490842D8770982E642C20
:10160000812C5FC0662D852D0E94FB077501E80CBB
:10161000F11C670181E0C81AD10810E041C0809137
:101620006C0190916D01FC01EE0DFF1D2491492D7F
:1016300050E030E0092C02C0220F331F0A94E2F779
:10164000022F8820A1F0FC01EC0DFD1DE49188E043
:1016500090E0841B950BF0E002C0F595E7958A9524
:10166000E2F70E2F022B80917001C80ED11C8091E1
:101670007101813039F4E9E6F1E0618180810E94F5
:10168000BA06082BC9E6D1E06981888191E0980FFC
:101690009883402F0E94AC068F81E80EF11C1F5FDB
:1016A000171508F4BCCF80917101811107C0E9E6DC
:1016B000F1E040E0618180810E94AC0688E0680E24
:1016C000839480917001881608F49CCF242D269570
:1016D0002695269530E080916F0190E0840D911D54
:1016E0000197AC0112F4495F5F4F559547955595A9
:1016F0004795559547952417350709F445C08FE35D
:10170000861508F441C0662D852D0E94FB07A80CA4
:10171000B11C81E0A81AB10800E029C0C9E6D1E0F7
:10172000F98018816F2D812F0E94BA06EB81FC8110
:10173000EA0DFB1D449128E030E02919310950E001
:1017400002C0559547952A95E2F7482B9885913028
:1017500009F4482BC9E6D1E081E0810F88836F2D21
:10176000812F0E94AC068F81A80EB11C0F5F071558
:10177000A8F280917101811107C0E9E6F1E040E033
:10178000618180810E94AC06852D870D642D8F5F5D
:101790000E94FB07DF91CF911F910F91FF90EF9077
:1017A000DF90CF90BF90AF909F908F907F906F9081
:1017B0005F904F900895CF93DF93EC010DC0E9E661
:1017C000F1E09081258130E0290F311D203831056D
:1017D00034F421960E94CA0A88818111F0CFDF91EA
:1017E000CF9108950F931F93CF93DF93CDB7DEB7BB
:1017F0002C970FB6F894DEBF0FBECDBF61157105F3
:101800008105910521F480E30E94CA0A14C0611584
:101810007105810520E8920771F08E010F5F1F4F5F
:101820002CE0F80111922A95E9F7A8010E94C80658
:10183000C8010E94DB0B2C960FB6F894DEBF0FBEDA
:10184000CDBFDF91CF911F910F91089587B1806136
:1018500087B987B1806287B988B1806188B988B15A
:10186000806288B91092B90088E48093B80084E05F
:101870008093BC0008958091B900887F089584EA20
:101880008093BC008091BC008823E4F70E943B0C4D
:10189000089585ED8093BC008091BC0084FDFCCF51
:1018A00008958093BB0084E88093BC008091BC00C5
:1018B0008823E4F70E943B0C08955058BB27AA27C1
:1018C0000E94750C0C94BF0D0E94B10D38F00E945F
:1018D000B80D20F039F49F3F19F426F40C94AE0DA6
:1018E0000EF4E095E7FB0C94A80DE92F0E94D00DB3
:1018F00058F3BA17620773078407950720F079F445
:10190000A6F50C94F20D0EF4E0950B2EBA2FA02D37
:101910000B01B90190010C01CA01A0011124FF279C
:10192000591B99F0593F50F4503E68F11A16F04097
:10193000A22F232F342F4427585FF3CF4695379596
:101940002795A795F0405395C9F77EF41F16BA0B5B
:10195000620B730B840BBAF09150A1F0FF0FBB1F09
:10196000661F771F881FC2F70EC0BA0F621F731F52
:10197000841F48F4879577956795B795F7959E3FAF
:1019800008F0B0CF9395880F08F09927EE0F979540
:10199000879508950E94DE0C0C94BF0D0E94B80D2F
:1019A00058F00E94B10D40F029F45F3F29F00C94EB
:1019B000A80D51110C94F30D0C94AE0D0E94D00D96
:1019C00068F39923B1F3552391F3951B550BBB276E
:1019D000AA2762177307840738F09F5F5F4F220FB3
:1019E000331F441FAA1FA9F335D00E2E3AF0E0E8AA
:1019F00032D091505040E695001CCAF72BD0FE2FF4
:101A000029D0660F771F881FBB1F26173707480787
:101A1000AB07B0E809F0BB0B802DBF01FF2793583F
:101A20005F4F3AF09E3F510578F00C94A80D0C944E
:101A3000F30D5F3FE4F3983ED4F386957795679571
:101A4000B795F7959F5FC9F7880F911D9695879574
:101A500097F90895E1E0660F771F881FBB1F621793
:101A600073078407BA0720F0621B730B840BBA0B51
:101A7000EE1F88F7E09508950E94D80D88F09F57D3
:101A800098F0B92F9927B751B0F0E1F0660F771FA2
:101A9000881F991F1AF0BA95C9F714C0B13091F098
:101AA0000E94F20DB1E008950C94F20D672F782F8B
:101AB0008827B85F39F0B93FCCF38695779567955D
:101AC000B395D9F73EF490958095709561957F4FC9
:101AD0008F4F9F4F0895E89409C097FB3EF490956F
:101AE0008095709561957F4F8F4F9F4F9923A9F0F7
:101AF000F92F96E9BB279395F69587957795679586
:101B0000B795F111F8CFFAF4BB0F11F460FF1BC0C9
:101B10006F5F7F4F8F4F9F4F16C0882311F096E95C
:101B200011C0772321F09EE8872F762F05C066230A
:101B300071F096E8862F70E060E02AF09A95660FC3
:101B4000771F881FDAF7880F9695879597F908957C
:101B500097F99F6780E870E060E008959FEF80EC60
:101B6000089500240A941616170618060906089503
:101B700000240A9412161306140605060895092E69
:101B80000394000C11F4882352F0BB0F40F4BF2BD8
:101B900011F460FF04C06F5F7F4F8F4F9F4F089518
:101BA00057FD9058440F551F59F05F3F71F047950E
:101BB000880F97FB991F61F09F3F79F087950895F3
:101BC000121613061406551FF2CF4695F1DF08C012
:101BD000161617061806991FF1CF8695710561052F
:101BE00008940895E894BB2766277727CB0197F9D7
:101BF00008950E940C0E0C94BF0D0E94B10D38F098
:101C00000E94B80D20F0952311F00C94A80D0C94AF
:101C1000AE0D11240C94F30D0E94D00D70F3959F1E
:101C2000C1F3950F50E0551F629FF001729FBB27D3
:101C3000F00DB11D639FAA27F00DB11DAA1F649F6F
:101C40006627B00DA11D661F829F2227B00DA11D22
:101C5000621F739FB00DA11D621F839FA00D611DA8
:101C6000221F749F3327A00D611D231F849F600DC9
:101C7000211D822F762F6A2F11249F5750409AF0F2
:101C8000F1F088234AF0EE0FFF1FBB1F661F771F7E
:101C9000881F91505040A9F79E3F510580F00C9449
:101CA000A80D0C94F30D5F3FE4F3983ED4F38695B2
:101CB00077956795B795F795E7959F5FC1F7FE2BE9
:101CC000880F911D9695879597F90895AA1BBB1BC0
:101CD00051E107C0AA1FBB1FA617B70710F0A61B2C
:101CE000B70B881F991F5A95A9F780959095BC014D
:101CF000CD010895A1E21A2EAA1BBB1BFD010DC048
:101D0000AA1FBB1FEE1FFF1FA217B307E407F507AB
:101D100020F0A21BB30BE40BF50B661F771F881F87
:101D2000991F1A9469F760957095809590959B011D
:101D3000AC01BD01CF010895A29FB001B39FC001C6
:101D4000A39F700D811D1124911DB29F700D811DE7
:101D50001124911D0895AEE0B0E0E1EBFEE00C949B
:101D6000A3110D891E8986E08C831A8309838FEF66
:101D70009FE79E838D83AE01475E5F4F6F89788DAD
:101D8000CE0101960E94CD0EEF81F885E00FF11F84
:101D900010822E96E4E00C94BF11ABE0B0E0E3EDCE
:101DA000FEE00C9495116C017B018A01FC01178205
:101DB0001682838181FFCCC1CE0101963C01F601E0
:101DC0009381F70193FD859193FF81917F01882392
:101DD00009F4BAC1853239F493FD859193FF81915D
:101DE0007F01853229F4B60190E00E94C410E7CF4C
:101DF000912C212C312CFFE1F315D8F08B3279F0A6
:101E000038F4803279F08332A1F4232D20611DC093
:101E10008D3261F0803369F4232D216016C0832D4B
:101E20008260382EE32DE4603E2E2AC0F32DF86048
:101E30001DC037FC2DC020ED280F2A3040F08E3217
:101E4000B9F436FC81C1232D2064322E19C036FE30
:101E500006C08AE0989E200D1124922E11C0EAE05F
:101E60002E9E200D1124222EF32DF0623F2E08C04D
:101E70008C3621F4832D8068382E02C0883641F4D8
:101E8000F70193FD859193FF81917F018111B3CF7C
:101E9000982F9F7D9554933028F40C5F1F4F9FE33C
:101EA00099830DC0833631F0833771F0833509F0A3
:101EB00059C021C0F801808189830E5F1F4F88249B
:101EC0008394912C530113C02801F2E04F0E511C52
:101ED000F801A080B18036FE03C0692D70E002C019
:101EE0006FEF7FEFC5010E94B9104C018201F32D05
:101EF000FF773F2E16C0280122E0420E511CF80148
:101F0000A080B18036FE03C0692D70E002C06FEF83
:101F10007FEFC5010E94AE104C01F32DF0683F2EFB
:101F2000820133FC1BC0822D90E088169906B0F424
:101F3000B60180E290E00E94C4102A94F4CFF5012B
:101F400037FC859137FE81915F01B60190E00E94D8
:101F5000C41021102A9421E0821A9108811491045E
:101F600071F7E8C0843611F0893641F5F80137FE83
:101F700007C060817181828193810C5F1F4F08C00F
:101F800060817181072E000C880B990B0E5F1F4F2B
:101F9000F32DFF763F2E97FF09C0909580957095A1
:101FA00061957F4F8F4F9F4FF0683F2E2AE030E0C2
:101FB000A3010E940011882E861845C0853731F490
:101FC000232D2F7EB22E2AE030E025C0932D997F5D
:101FD000B92E8F36C1F018F4883579F0B5C0803746
:101FE00019F0883721F0B0C0E92FE061BE2EB4FEB1
:101FF0000DC0FB2DF460BF2E09C034FE0AC0292F8E
:102000002660B22E06C028E030E005C020E130E0B6
:1020100002C020E132E0F801B7FE07C060817181A3
:10202000828193810C5F1F4F06C06081718180E0C7
:1020300090E00E5F1F4FA3010E940011882E8618AA
:10204000FB2DFF773F2E36FE0DC0232D2E7FA22EB7
:10205000891458F434FE0BC032FC09C0832D8E7EE7
:10206000A82E05C0B82CA32C03C0B82C01C0B92CD5
:10207000A4FE0FC0FE01E80DF11D8081803321F424
:102080009A2D997EA92E09C0A2FE06C0B394B394DE
:1020900004C08A2D867809F0B394A3FC11C0A0FE79
:1020A00006C0B21488F4280C922C9B180EC0B214EF
:1020B00060F4B60180E290E00E94C410B394F7CFC0
:1020C000B21418F42B1802C0982C212CA4FE10C0B6
:1020D000B60180E390E00E94C410A2FE17C0A1FCEC
:1020E00003C088E790E002C088E590E0B6010CC02C
:1020F0008A2D867859F0A1FE02C08BE201C080E2F1
:10210000A7FC8DE2B60190E00E94C410891438F457
:10211000B60180E390E00E94C4109A94F7CF8A94AD
:10212000F301E80DF11D8081B60190E00E94C4101A
:102130008110F5CF222009F442CEB60180E290E072
:102140000E94C4102A94F6CFF6018681978102C0BE
:102150008FEF9FEF2B96E2E10C94B111FC010590FB
:10216000615070400110D8F7809590958E0F9F1F99
:102170000895FC016150704001900110D8F78095DE
:1021800090958E0F9F1F08950F931F93CF93DF930A
:10219000FB01238121FD03C08FEF9FEF2CC022FFA5
:1021A00016C046815781248135814217530744F474
:1021B000A081B1819D012F5F3F4F318320838C939C
:1021C000268137812F5F3F4F3783268314C08B01D1
:1021D000EC01FB010084F185E02D0995892BE1F6E6
:1021E000D80116968D919C911797019617969C93FE
:1021F0008E931697CE01DF91CF911F910F91089585
:10220000FA01AA27283051F1203181F1E8946F9327
:102210006E7F6E5F7F4F8F4F9F4FAF4FB1E03ED0CD
:10222000B4E03CD0670F781F891F9A1FA11D680F6B
:10223000791F8A1F911DA11D6A0F711D811D911D9E
:10224000A11D20D009F468943F912AE0269F112413
:102250003019305D3193DEF6CF010895462F477077
:10226000405D4193B3E00FD0C9F7F6CF462F4F70D2
:10227000405D4A3318F0495D31FD4052419302D030
:10228000A9F7EACFB4E0A6959795879577956795D6
:10229000BA95C9F700976105710508959B01AC01D6
:1022A0000A2E06945795479537952795BA95C9F7FD
:1022B000620F731F841F951FA01D0895A6E1B0E053
:1022C00044E050E00C947911A8E1B0E042E050E025
:1022D0000C947911242F0E948811252F0E948811B7
:1022E0000C9472110E948711272F0C948811DC0125
:1022F000CB01FC01F999FECF06C0F2BDE1BDF89A11
:10230000319600B40D9241505040B8F70895262FF1
:10231000F999FECF1FBA92BD81BD20BD0FB6F894CA
:10232000FA9AF99A0FBE019608952F923F924F9212
:102330005F926F927F928F929F92AF92BF92CF9255
:10234000DF92EF92FF920F931F93CF93DF93CDB75E
:10235000DEB7CA1BDB0B0FB6F894DEBF0FBECDBFD6
:1023600009942A88398848885F846E847D848C84A7
:102370009B84AA84B984C884DF80EE80FD800C81B0
:102380001B81AA81B981CE0FD11D0FB6F894DEBF93
:0C2390000FBECDBFED010895F894FFCF03
:10239C0032001900320025640021004D00436F6D9E
:1023AC00702E20426F72646F002025002D2D2D2D74
:1023BC002D2D2D2D2D2D2D2D002043004469616DCB
:1023CC0028636D293A20002072706D00536F6E6186
:0C23DC00723A200020636D00204B6D0061
:00000001FF
